{"abi":[{"type":"constructor","inputs":[],"stateMutability":"nonpayable"},{"type":"function","name":"VrfManager","inputs":[],"outputs":[{"name":"","type":"address","internalType":"address"}],"stateMutability":"view"},{"type":"function","name":"fulfillRandomWords","inputs":[{"name":"requestId","type":"uint256","internalType":"uint256"},{"name":"randomWords","type":"uint256[]","internalType":"uint256[]"}],"outputs":[],"stateMutability":"nonpayable"},{"type":"function","name":"getRequestStatus","inputs":[{"name":"_requestId","type":"uint256","internalType":"uint256"}],"outputs":[{"name":"fulfilled","type":"bool","internalType":"bool"},{"name":"randomWords","type":"uint256[]","internalType":"uint256[]"}],"stateMutability":"view"},{"type":"function","name":"initialize","inputs":[{"name":"initOwner","type":"address","internalType":"address"},{"name":"Manager","type":"address","internalType":"address"}],"outputs":[],"stateMutability":"nonpayable"},{"type":"function","name":"lastRequestId","inputs":[],"outputs":[{"name":"","type":"uint256","internalType":"uint256"}],"stateMutability":"view"},{"type":"function","name":"owner","inputs":[],"outputs":[{"name":"","type":"address","internalType":"address"}],"stateMutability":"view"},{"type":"function","name":"renounceOwnership","inputs":[],"outputs":[],"stateMutability":"nonpayable"},{"type":"function","name":"requestIds","inputs":[{"name":"","type":"uint256","internalType":"uint256"}],"outputs":[{"name":"","type":"uint256","internalType":"uint256"}],"stateMutability":"view"},{"type":"function","name":"requestMappings","inputs":[{"name":"","type":"uint256","internalType":"uint256"}],"outputs":[{"name":"fulfilled","type":"bool","internalType":"bool"}],"stateMutability":"view"},{"type":"function","name":"requestRandWords","inputs":[{"name":"requestId","type":"uint256","internalType":"uint256"},{"name":"numwords","type":"uint256","internalType":"uint256"}],"outputs":[],"stateMutability":"nonpayable"},{"type":"function","name":"setManager","inputs":[{"name":"newManager","type":"address","internalType":"address"}],"outputs":[],"stateMutability":"nonpayable"},{"type":"function","name":"transferOwnership","inputs":[{"name":"newOwner","type":"address","internalType":"address"}],"outputs":[],"stateMutability":"nonpayable"},{"type":"event","name":"FillRandomWords","inputs":[{"name":"requestId","type":"uint256","indexed":false,"internalType":"uint256"},{"name":"randomWords","type":"uint256[]","indexed":false,"internalType":"uint256[]"}],"anonymous":false},{"type":"event","name":"Initialized","inputs":[{"name":"version","type":"uint64","indexed":false,"internalType":"uint64"}],"anonymous":false},{"type":"event","name":"OwnershipTransferred","inputs":[{"name":"previousOwner","type":"address","indexed":true,"internalType":"address"},{"name":"newOwner","type":"address","indexed":true,"internalType":"address"}],"anonymous":false},{"type":"event","name":"RequestSend","inputs":[{"name":"requestId","type":"uint256","indexed":false,"internalType":"uint256"},{"name":"numwords","type":"uint256","indexed":false,"internalType":"uint256"},{"name":"current","type":"address","indexed":false,"internalType":"address"}],"anonymous":false},{"type":"error","name":"InvalidInitialization","inputs":[]},{"type":"error","name":"NotInitializing","inputs":[]},{"type":"error","name":"OwnableInvalidOwner","inputs":[{"name":"owner","type":"address","internalType":"address"}]},{"type":"error","name":"OwnableUnauthorizedAccount","inputs":[{"name":"account","type":"address","internalType":"address"}]}],"bytecode":{"object":"0x6080604052348015600f57600080fd5b506016601a565b60ca565b7ff0c57e16840df040f15088dc2f81fe391c3923bec73e23a9662efc9c229c6a00805468010000000000000000900460ff161560695760405163f92ee8a960e01b815260040160405180910390fd5b80546001600160401b039081161460c75780546001600160401b0319166001600160401b0390811782556040519081527fc7f505b2f371ae2175ee4913f4499e1f2633a7b5936321eed1cdaeb6115181d29060200160405180910390a15b50565b6109db806100d96000396000f3fe608060405234801561001057600080fd5b50600436106100b45760003560e01c8063d0ebdbe711610071578063d0ebdbe714610186578063d8a4676f14610199578063e5e1b972146101ba578063f2fde38b146101cd578063f68b2da8146101e0578063fc2a88c3146101f357600080fd5b806338ba4614146100b9578063485cc955146100ce578063715018a6146100e1578063873767b4146100e95780638796ba8c146101215780638da5cb5b14610142575b600080fd5b6100cc6100c73660046107a8565b6101fc565b005b6100cc6100dc36600461089d565b6102f0565b6100cc61041c565b61010c6100f73660046108d0565b60016020526000908152604090205460ff1681565b60405190151581526020015b60405180910390f35b61013461012f3660046108d0565b610430565b604051908152602001610118565b7f9016d09d72d40fdae2fd8ceac6b6234c7706214fd39c1cd1e609a0528c199300546001600160a01b03165b6040516001600160a01b039091168152602001610118565b6100cc6101943660046108e9565b610451565b6101ac6101a73660046108d0565b61047b565b604051610118929190610947565b60005461016e906001600160a01b031681565b6100cc6101db3660046108e9565b6104ed565b6100cc6101ee36600461096a565b61052b565b61013460035481565b6000546001600160a01b031633146102675760405162461bcd60e51b815260206004820152602360248201527f4f6e6c79206d616e616765722063616e2063616c6c20746869732066756e637460448201526234b7b760e91b60648201526084015b60405180910390fd5b604080518082018252600180825260208083018581526000878152838352949094208351815460ff1916901515178155935180519394936102af938501929190910190610732565b509050507ff3cb4deb0441dd096356debf166f879d78cadc19e4b94053c8bea6d3940de93a82826040516102e492919061098c565b60405180910390a15050565b7ff0c57e16840df040f15088dc2f81fe391c3923bec73e23a9662efc9c229c6a008054600160401b810460ff16159067ffffffffffffffff166000811580156103365750825b905060008267ffffffffffffffff1660011480156103535750303b155b905081158015610361575080155b1561037f5760405163f92ee8a960e01b815260040160405180910390fd5b845467ffffffffffffffff1916600117855583156103a957845460ff60401b1916600160401b1785555b6103b287610604565b600080546001600160a01b0319166001600160a01b038816179055831561041357845460ff60401b19168555604051600181527fc7f505b2f371ae2175ee4913f4499e1f2633a7b5936321eed1cdaeb6115181d29060200160405180910390a15b50505050505050565b610424610615565b61042e6000610670565b565b6002818154811061044057600080fd5b600091825260209091200154905081565b610459610615565b600080546001600160a01b0319166001600160a01b0392909216919091179055565b600081815260016020818152604080842080549301805482518185028101850190935280835260609460ff16939192918391908301828280156104dd57602002820191906000526020600020905b8154815260200190600101908083116104c9575b5050505050905091509150915091565b6104f5610615565b6001600160a01b03811661051f57604051631e4fbdf760e01b81526000600482015260240161025e565b61052881610670565b50565b610533610615565b60408051808201825260008082528251818152602080820185528084019182528683526001808252949092208351815460ff1916901515178155905180519394919361058793928501929190910190610732565b5050600280546001810182556000919091527f405787fa12a823e0f2b7631cc41b3ba8828b3321ca811111fa75cd3aa3bb5ace01839055506003829055604080518381526020810183905230918101919091527fb0089ea4415f0160195bcb1ffe462e932fb0012a47725589204b54981a6306f7906060016102e4565b61060c6106e1565b6105288161072a565b336106477f9016d09d72d40fdae2fd8ceac6b6234c7706214fd39c1cd1e609a0528c199300546001600160a01b031690565b6001600160a01b03161461042e5760405163118cdaa760e01b815233600482015260240161025e565b7f9016d09d72d40fdae2fd8ceac6b6234c7706214fd39c1cd1e609a0528c19930080546001600160a01b031981166001600160a01b03848116918217845560405192169182907f8be0079c531659141344cd1fd0a4f28419497f9722a3daafe3b4186f6b6457e090600090a3505050565b7ff0c57e16840df040f15088dc2f81fe391c3923bec73e23a9662efc9c229c6a0054600160401b900460ff1661042e57604051631afcd79f60e31b815260040160405180910390fd5b6104f56106e1565b82805482825590600052602060002090810192821561076d579160200282015b8281111561076d578251825591602001919060010190610752565b5061077992915061077d565b5090565b5b80821115610779576000815560010161077e565b634e487b7160e01b600052604160045260246000fd5b600080604083850312156107bb57600080fd5b82359150602083013567ffffffffffffffff8111156107d957600080fd5b8301601f810185136107ea57600080fd5b803567ffffffffffffffff81111561080457610804610792565b8060051b604051601f19603f830116810181811067ffffffffffffffff8211171561083157610831610792565b60405291825260208184018101929081018884111561084f57600080fd5b6020850194505b8385101561087257843580825260209586019590935001610856565b50809450505050509250929050565b80356001600160a01b038116811461089857600080fd5b919050565b600080604083850312156108b057600080fd5b6108b983610881565b91506108c760208401610881565b90509250929050565b6000602082840312156108e257600080fd5b5035919050565b6000602082840312156108fb57600080fd5b61090482610881565b9392505050565b600081518084526020840193506020830160005b8281101561093d57815186526020958601959091019060010161091f565b5093949350505050565b8215158152604060208201526000610962604083018461090b565b949350505050565b6000806040838503121561097d57600080fd5b50508035926020909101359150565b828152604060208201526000610962604083018461090b56fea26469706673582212208b9e6f937e4a5f213ca9525a86493666ec17a72c49703a4f08e733debae59e2664736f6c634300081b0033","linkReferences":{}},"methodIdentifiers":{"VrfManager()":"e5e1b972","fulfillRandomWords(uint256,uint256[])":"38ba4614","getRequestStatus(uint256)":"d8a4676f","initialize(address,address)":"485cc955","lastRequestId()":"fc2a88c3","owner()":"8da5cb5b","renounceOwnership()":"715018a6","requestIds(uint256)":"8796ba8c","requestMappings(uint256)":"873767b4","requestRandWords(uint256,uint256)":"f68b2da8","setManager(address)":"d0ebdbe7","transferOwnership(address)":"f2fde38b"},"id":33}