{"abi":[{"type":"constructor","inputs":[],"stateMutability":"nonpayable"},{"type":"function","name":"createProxy","inputs":[{"name":"imlementation","type":"address","internalType":"address"}],"outputs":[{"name":"","type":"address","internalType":"address"}],"stateMutability":"nonpayable"},{"type":"function","name":"createProxyByOZ","inputs":[{"name":"implementation","type":"address","internalType":"address"},{"name":"manager","type":"address","internalType":"address"}],"outputs":[{"name":"","type":"address","internalType":"address"}],"stateMutability":"nonpayable"},{"type":"event","name":"ProxyCreated","inputs":[{"name":"proxyAddress","type":"address","indexed":false,"internalType":"address"}],"anonymous":false},{"type":"error","name":"FailedDeployment","inputs":[]},{"type":"error","name":"InsufficientBalance","inputs":[{"name":"balance","type":"uint256","internalType":"uint256"},{"name":"needed","type":"uint256","internalType":"uint256"}]}],"bytecode":{"object":"0x6080604052348015600f57600080fd5b5061035f8061001f6000396000f3fe608060405234801561001057600080fd5b50600436106100365760003560e01c80636140c54c1461003b578063d1158f771461006a575b600080fd5b61004e6100493660046102d4565b61007d565b6040516001600160a01b03909116815260200160405180910390f35b61004e6100783660046102f6565b610190565b604051693d602d80600a3d3981f360b01b602082015269363d3d373d3d3d363d7360b01b602a8201526bffffffffffffffffffffffff19606083901b1660348201526e5af43d82803e903d91602b57fd5bf360881b60488201526000908190605701604051602081830303815290604052905060008151602083016000f090506001600160a01b03811661014e5760405162461bcd60e51b8152602060048201526014602482015273141c9bde1e4810dc99585d19590819985a5b195960621b604482015260640160405180910390fd5b6040516001600160a01b03821681527efffc2da0b561cae30d9826d37709e9421c4725faebc226cbbb7ef5fc5e73499060200160405180910390a19392505050565b60008061019c84610246565b60405163485cc95560e01b81523360048201526001600160a01b0385811660248301529192509082169063485cc95590604401600060405180830381600087803b1580156101e957600080fd5b505af11580156101fd573d6000803e3d6000fd5b50506040516001600160a01b03841681527efffc2da0b561cae30d9826d37709e9421c4725faebc226cbbb7ef5fc5e73499250602001905060405180910390a190505b92915050565b6000610240828280763d602d80600a3d3981f3363d3d373d3d3d363d730000008360601b60e81c176000526e5af43d82803e903d91602b57fd5bf38360781b176020526037600983f090506001600160a01b0381166102405760405163b06ebf3d60e01b815260040160405180910390fd5b80356001600160a01b03811681146102cf57600080fd5b919050565b6000602082840312156102e657600080fd5b6102ef826102b8565b9392505050565b6000806040838503121561030957600080fd5b610312836102b8565b9150610320602084016102b8565b9050925092905056fea264697066735822122026df86b371abaddfa2b12ccf22ecbee4e50c7f3e5e7bb74dfc2bd73c1bbeb23464736f6c634300081b0033","linkReferences":{}},"methodIdentifiers":{"createProxy(address)":"6140c54c","createProxyByOZ(address,address)":"d1158f77"},"id":33}